:1000000062C0000085C0000083C0000081C0000005
:100010007FC000007DC000007BC0000079C00000F0
:1000200077C0000075C0000073C00000F5C5000077
:100030006FC000006DC000006BC0000069C0000010
:100040002FC4000065C0000044C2000074C200005C
:100050005FC000005DC000005BC0000059C0000030
:1000600057C0000055C00000000000080002010059
:100070000003040700000000000000000102040863
:100080001020408001020408102001020408102002
:10009000040404040404040402020202020203032E
:1000A00003030303000000002300260029000000D2
:1000B0000000250028002B0000000000240027007D
:1000C0002A002301C90211241FBECFEFD8E0DEBFF2
:1000D000CDBF11E0A0E0B1E0E6EEF0E102C0059096
:1000E0000D92A433B107D9F722E0A4E3B1E001C037
:1000F0001D92A830B207E1F710E0C6ECD0E003C0D3
:100100002297FE01DBD7C23CD107D1F7BFD3E9C7A5
:1001100077CF61E085E0E9D462E086E0E6D463E091
:1001200070E087E391E0CAD66AE070E084E391E092
:10013000C5D626E040E855E260E070E08CE391E04F
:1001400068C183E08CD44AE050E0BC018CE391E0CC
:1001500050D36EE071E08CE391E09CD284E07FD4D8
:100160004AE050E0BC018CE391E043D361E071E0F0
:100170008CE391E09AC2AF92BF92CF92DF92EF925E
:10018000FF920F931F93CF9386E01DD5682F85E0D4
:10019000E5D4D7DF83E063D490933B0180933A01A9
:1001A000BC01882777FD8095982F1F921F921F9280
:1001B000C4EBCF93A12CB12C6501EE24EA9413E09B
:1001C000F12E00E010E020E030E0A90119D3709397
:1001D0003B0160933A0184E391E0A8D684E03FD4E8
:1001E00090933B0180933A01BC01882777FD80956D
:1001F000982F1F921F921F92CF9336E4A32EB12CFB
:10020000C12CD12C20E030E0A901FAD270933B013F
:1002100060933A0187E391E089D68DB79EB708963F
:100220000FB6F8949EBF0FBE8DBF6FE070E080E008
:1002300090E0CF911F910F91FF90EF90DF90CF90C2
:10024000BF90AF909AC387E391E0A0D584E391E09B
:100250009DC5FC01818D228D90E0805C9F4F821BAB
:1002600091098F7399270895FC01918D828D9817BC
:1002700031F0828DE80FF11D858D90E008958FEFAC
:100280009FEF0895FC01918D828D981761F0828D0A
:10029000DF01A80FB11D5D968C91928D9F5F9F73BA
:1002A000928F90E008958FEF9FEF089580EC92E099
:1002B000892B41F080E090E0892B21F061D1811100
:1002C0000C9400000895FC01848DDF01A80FB11D7E
:1002D000A35ABF4F2C91848D90E001968F7399277C
:1002E000848FA689B7892C93A089B1898C91806469
:1002F0008C93938D848D981306C00288F389E02D2A
:1003000080818F7D80830895CF93DF93EC01888D6A
:100310008823C1F0EA89FB89808185FD05C0A88911
:10032000B9898C9186FD0EC00FB607FCF5CF808190
:1003300085FFF2CFA889B9898C9185FFEDCFCE01D9
:10034000C2DFE8CFDF91CF910895CF92DF92FF9285
:100350000F931F93CF93DF931F92CDB7DEB76C013E
:1003600081E0D60158968C9358975B969C915B9749
:100370005C968C915C97981307C05096ED91FC9118
:100380005197808185FD2DC0F601038D10E00F5F30
:100390001F4F0F731127F02EF601848DF81210C035
:1003A0000FB607FCF9CFD6015096ED91FC9151970D
:1003B000808185FFF1CFC601698385DF6981ECCF3C
:1003C000838DE80FF11DE35AFF4F6083D6015B96E2
:1003D0000C935B975296ED91FC91539780818062CC
:1003E0000CC0D6015696ED91FC91579760835096BC
:1003F000ED91FC91519780818064808381E090E051
:100400000F90DF91CF911F910F91FF90DF90CF90D0
:100410000895BF92CF92DF92EF92FF92CF93DF9336
:10042000EC016A017B01B22EE889F98982E08083C0
:10043000411581EE58076105710599F060E079E09A
:100440008DE390E0A7019601EFD5215031094109D4
:1004500051095695479537952795211580E138071D
:1004600090F0E889F989108260E874E88EE190E004
:10047000A7019601D9D52150310941095109569555
:10048000479537952795EC85FD853083EE85FF856B
:100490002083188EEC89FD89B082EA89FB898081EE
:1004A00080618083EA89FB89808188608083EA8912
:1004B000FB89808180688083EA89FB8980818F7DC8
:1004C0008083DF91CF91FF90EF90DF90CF90BF902E
:1004D00008951F920F920FB60F9211242F938F93AE
:1004E0009F93EF93FF93E0914C01F0914D01808138
:1004F000E0915201F091530182FD12C090818091F0
:1005000055018F5F8F7320915601821751F0E09152
:100510005501F0E0E45CFE4F958F8093550101C0DA
:100520008081FF91EF919F918F912F910F900FBE3E
:100530000F901F9018951F920F920FB60F921124D3
:100540002F933F934F935F936F937F938F939F93DB
:10055000AF93BF93EF93FF938CE391E0B4DEFF91F1
:10056000EF91BF91AF919F918F917F916F915F912B
:100570004F913F912F910F900FBE0F901F901895A4
:100580008CE391E066DE21E0892B09F420E0822FE4
:10059000089510923F0110923E0188EE93E0A0E092
:1005A000B0E08093400190934101A0934201B09349
:1005B000430186E191E090933D0180933C0185ECFD
:1005C00090E0909349018093480184EC90E09093EF
:1005D0004B0180934A0180EC90E090934D01809311
:1005E0004C0181EC90E090934F0180934E0182EC9E
:1005F00090E0909351018093500186EC90E09093AD
:10060000530180935201109255011092560110929D
:100610005701109258010895CF92DF92EF92FF9206
:100620000F931F93CF93DF937C016A01EB0100E0EE
:1006300010E00C151D0571F06991D701ED91FC9149
:100640000190F081E02DC7010995892B19F00F5F0A
:100650001F4FEFCFC801DF91CF911F910F91FF90F6
:10066000EF90DF90CF9008956115710581F0DB0167
:100670000D900020E9F7AD0141505109461B570B81
:10068000DC01ED91FC910280F381E02D099480E082
:1006900090E00895E9CFDC01ED91FC910190F081AB
:1006A000E02D099462E271E0DFCF0F931F93CF93A7
:1006B000DF93EC01D9DF8C01CE01F4DF800F911FB5
:1006C000DF91CF911F910F9108958F929F92AF92DA
:1006D000BF92DF92EF92FF920F931F93CF93DF931E
:1006E000CDB7DEB7A1970FB6F894DEBF0FBECDBF72
:1006F0007C01F42FD52ECB0119A2223008F42AE078
:100700008E010F5D1F4F822E912CA12CB12C6F2FCB
:100710007D2DA501940188D4F22FD32ECA0101505A
:1007200011096A3014F4E0E301C0E7E3E60FD801F1
:10073000EC93232B242B252B51F7B801C70194DF11
:10074000A1960FB6F894DEBF0FBECDBFDF91CF915B
:100750001F910F91FF90EF90DF90BF90AF909F900F
:100760008F900895CF92DF92EF92FF920F931F9395
:10077000CF93DF93EC016A017B012115310579F4F8
:10078000E881F9810190F081E02D642FDF91CF9114
:100790001F910F91FF90EF90DF90CF9009942A3036
:1007A0003105D9F477FF18C06DE275DF8C0144275D
:1007B0005527BA014C195D096E097F092AE0CE015F
:1007C00084DF800F911FDF91CF911F910F91FF90D8
:1007D000EF90DF90CF9008952AE0B701A601CE01F7
:1007E000DF91CF911F910F91FF90EF90DF90CF900D
:1007F0006CCF9A01AB01662757FD6095762FB2CF7B
:100800004F925F926F927F92AF92BF92CF92DF92A0
:10081000EF92FF920F931F93CF93DF93CDB7DEB785
:1008200029013A01621B730B840B950B29893A89C4
:100830004B895C892A193B094C095D09298B3A8B44
:100840004B8B5C8B9B01AC0169897A898B899C8974
:10085000D0D3E418F50806091709A801970106D4B2
:100860002A0D3B1D4C1D5D1DCA01B901DF91CF91C1
:100870001F910F91FF90EF90DF90CF90BF90AF90BE
:100880007F906F905F904F9008950895ADD0FDDFF9
:1008900040DCC6E5D1E06FDC2097E9F307DDFBCF54
:1008A0001F920F920FB60F9211242F933F938F93A5
:1008B0009F93AF93BF938091DA019091DB01A09158
:1008C000DC01B091DD013091D90123E0230F2D37F8
:1008D00020F40196A11DB11D05C026E8230F029644
:1008E000A11DB11D2093D9018093DA019093DB0102
:1008F000A093DC01B093DD018091DE019091DF01D6
:10090000A091E001B091E1010196A11DB11D80937C
:10091000DE019093DF01A093E001B093E101BF916C
:10092000AF919F918F913F912F910F900FBE0F909C
:100930001F9018953FB7F8948091DE019091DF01E8
:10094000A091E001B091E10126B5A89B05C02F3F21
:1009500019F00196A11DB11D3FBF6627782F892F81
:100960009A2F620F711D811D911D42E0660F771F46
:10097000881F991F4A95D1F708958F929F92AF9241
:10098000BF92CF92DF92EF92FF926B017C01D2DF98
:100990004B015C01C114D104E104F104E1F03BD14D
:1009A000C9DF681979098A099B09683E7340810586
:1009B000910580F321E0C21AD108E108F10888EE20
:1009C000880E83E0981EA11CB11CC114D104E1045F
:1009D000F10431F7DFCFFF90EF90DF90CF90BF9021
:1009E000AF909F908F900895789484B5826084BD75
:1009F00084B5816084BD85B5826085BD85B5816023
:100A000085BDEEE6F0E0808181608083E1E8F0E082
:100A10001082808182608083808181608083E0E8B1
:100A2000F0E0808181608083E1EBF0E08081846090
:100A30008083E0EBF0E0808181608083EAE7F0E092
:100A400080818460808380818260808380818160F6
:100A500080838081806880831092C10008958E30E9
:100A600008F08E5087702091000190E4299F90013A
:100A70001124822B80937C0080917A008064809383
:100A80007A0080917A0086FDFCCF809178002091D9
:100A9000790090E0922B0895833081F028F4813022
:100AA00099F08230A1F008958730A9F08830B9F02C
:100AB0008430D1F4809180008F7D03C080918000CC
:100AC0008F7780938000089584B58F7702C084B5B6
:100AD0008F7D84BD08958091B0008F7703C0809191
:100AE000B0008F7D8093B0000895CF93DF9390E0A6
:100AF000FC01E458FF4F2491FC01E057FF4F849123
:100B0000882349F190E0880F991FFC01E854FF4FBA
:100B1000A591B49182559F4FFC01C591D4919FB787
:100B2000611108C0F8948C91209582238C93888160
:100B300082230AC0623051F4F8948C91322F3095A0
:100B400083238C938881822B888304C0F8948C91B2
:100B5000822B8C939FBFDF91CF9108950F931F93AA
:100B6000CF93DF931F92CDB7DEB7282F30E0F90186
:100B7000E859FF4F8491F901E458FF4F1491F901AE
:100B8000E057FF4F04910023C1F0882319F06983D7
:100B900083DF6981E02FF0E0EE0FFF1FE255FF4F8A
:100BA000A591B4919FB7F8948C91611103C01095F1
:100BB000812301C0812B8C939FBF0F90DF91CF9138
:100BC0001F910F910895CF93DF93282F30E0F90103
:100BD000E859FF4F8491F901E458FF4FD491F9018E
:100BE000E057FF4FC491CC2389F0811155DFEC2FE2
:100BF000F0E0EE0FFF1FEC55FF4FA591B4912C9143
:100C00002D2381E090E021F480E002C080E090E0BC
:100C1000DF91CF91089508951F920F920FB60F9212
:100C200011242F933F934F935F936F937F938F93F1
:100C30009F93AF93BF93EF93FF938091E30187FF5F
:100C400005C010928500109284001AC02091E30123
:100C5000332727FD30958091E20190E0281739076E
:100C60007CF48091E301992787FD9095FC01EE0FBC
:100C7000FF1FE80FF91FEC51FE4F808186FD15C064
:100C80008091E3018F5F8093E3012091E30133279B
:100C900027FD30958091E20190E028173907B4F4E0
:100CA0008091E3018C3054F111C08091E3019927C8
:100CB00087FD9095FC01EE0FFF1FE80FF91FEC5127
:100CC000FE4F808160E08F7349DFDACF809184002E
:100CD00090918500049680349C4918F480E49CE946
:100CE00005C08091840090918500049690938900BE
:100CF000809388008FEF8093E30137C020918400B8
:100D0000309185008091E301992787FD9095FC0142
:100D1000EE0FFF1FE80FF91FEC51FE4F818192810A
:100D2000820F931F90938900809388008091E30144
:100D3000992787FD9095FC01EE0FFF1FE80FF91F23
:100D4000EC51FE4F808186FF10C08091E30199270E
:100D500087FD9095FC01EE0FFF1FE80FF91FEC5186
:100D6000FE4F808161E08F73F9DEFF91EF91BF91BB
:100D7000AF919F918F917F916F915F914F913F9133
:100D80002F910F900FBE0F901F9018952091E201A8
:100D90002C30A0F431E0320F3093E201FC012083CB
:100DA000822F90E0FC01EE0FFF1FE80FF91FEC51BE
:100DB000FE4F88EB9BE09283818308952FEFFC0127
:100DC00020830895DF92EF92FF920F931F93CF93AA
:100DD000DF93EC01D62E7A01890188818C3008F0EE
:100DE00064C061E08D2D81DE8881A82FB0E0FD0117
:100DF000EE0FFF1FEA0FFB1FEC51FE4F2D2D2F733F
:100E00009081907C922B908360E272E06E197F0952
:100E100077FF02C06D5F7F4F7595679575956795F4
:100E2000698340E659E0401B510B57FF02C04D5FFC
:100E30005F4F55954795559547954A836CE0E8D0A7
:100E40009CE0899FB001112420E030E0A901460F09
:100E5000571FFA01EE0FFF1FE40FF51FEC51FE4F75
:100E6000908196FD16C02F5F3F4F2C30310571F7F2
:100E700081110FC01092800082E080938100109257
:100E8000850010928400B19A80916F0082608093F7
:100E90006F00888190E0FC01EE0FFF1FE80FF91F43
:100EA000EC51FE4F8081806480838881DF91CF91F7
:100EB0001F910F91FF90EF90DF90089520E639E0A9
:100EC00040E252E07FCFFC0180818C3070F591814F
:100ED00028E830E0291B310997FD3395220F331F95
:100EE000220F331F621773077CF0928128E532E0EE
:100EF000291B310997FD3395220F331F220F331F12
:100F0000621773070CF49B0122503109220F331F23
:100F10004FB7F89490E0FC01EE0FFF1FE80FF91FA8
:100F2000EC51FE4F328321834FBF08954F925F9261
:100F30006F927F92AF92BF92CF92DF92EF92FF9229
:100F40000F931F93CF93DF93EC01603282E0780719
:100F50000CF03FC077FD06C0653B71052CF064EBDB
:100F600070E002C060E070E0898128E830E0281B72
:100F7000310987FD3395220F331F220F331F59018B
:100F8000CC24B7FCC094DC2C882777FD8095982F63
:100F90002A8148E552E0421B510927FD5395440F31
:100FA000551F440F551F2A01662457FC6094762C68
:100FB0007F926F925F924F9214EBE12EF12C00E042
:100FC00010E020E030E0A9011BDC0F900F900F90A3
:100FD0000F90CE01DF91CF911F910F91FF90EF9075
:100FE000DF90CF90BF90AF907F906F905F904F90C9
:100FF0006ACFDB018F939F9355D0BF91AF91A29F92
:10100000800D911DA39F900DB29F900D1124089506
:10101000991B79E004C0991F961708F0961B881F4A
:101020007A95C9F780950895A1E21A2EAA1BBB1BD9
:10103000FD010DC0AA1FBB1FEE1FFF1FA217B307A4
:10104000E407F50720F0A21BB30BE40BF50B661FBA
:10105000771F881F991F1A9469F76095709580957E
:1010600090959B01AC01BD01CF010895052E97FB22
:1010700016F400940FD057FD05D0D6DF07FC02D040
:1010800046F408C050954095309521953F4F4F4FFD
:101090005F4F089590958095709561957F4F8F4F24
:1010A0009F4F08950FD0A59F900DB49F900DA49FC2
:1010B000800D911D11240895EE0FFF1F0590F491EE
:1010C000E02D0994A29FB001B39FC001A39F700DB2
:1010D000811D1124911DB29F700D811D1124911D40
:0610E0000895F894FFCF13
:1010E600012D2D2D2D2D2D2D2D2D2D2D2D2D2D2D56
:1010F6002D0000000000A5010C0329014201340166
:1011060084010D0A006E616E00696E66006F766678
:04111600002E0000A7
:00000001FF
